:020000040000FA
:0400000007EF00F016
:0A0008005F82C4ED1AF06FEF1AF0EA
:10080000006042A20D49203D2025302E3366202075
:1008100020410049203D2025302E33662020410014
:1008200049203D2025302E3366204100494E4600A8
:100830004E414E00696E66006E616E006C6600008F
:10084000000E0001916F000E906F6CC0A2F06DC0A1
:10085000A3F06EC0A4F06FC0A5F0A5AF16D0000E37
:10086000916F010E906FA2C001F0A3C002F0A4C06E
:1008700003F0A5C004F043EC1AF001C0A2F002C0DE
:10088000A3F003C0A4F004C0A5F0000E0001A96FFE
:10089000000EA86FEDC095F0EEC096F0905191114A
:1008A000D8A402D0F1A513D090519111D8A404D0AE
:1008B000000E7B6F2B0E03D0000E7B6F2D0E7A6F18
:1008C0007AC016F1A84BA92B9507D8A09607A2C00D
:1008D00001F0A3C002F0A4C003F0A5C004F0CBEC6B
:1008E00015F001040210D8A44CD0BF0E0001716FA6
:1008F000FF0E726F7051736F746B71517327725169
:100900007423745106E11A0E735DD8B002D0010E43
:1009100001D0000E7C6F7D6B7C517D11D8B40DD061
:10092000160EA825016E010EA921026E2C0E036E73
:10093000080E046ECDEC18F00CD0160EA825016E32
:10094000010EA921026E340E036E080E046ECDEC6A
:1009500018F00001FD0E9527FF0E96236AC011F0D6
:100960006BC012F0160E136E010E146E95C015F0CA
:1009700096C016F030EC17F011C06AF012C06BF0A0
:100980001200A2C001F0A3C002F0A4C003F0A5C0F1
:1009900004F0CBEC15F001500210D8A435D0BF0EF6
:1009A0000001716FFF0E726F7051736F746B715134
:1009B000732772517423745106E11A0E735DD8B017
:1009C00002D0010E01D0000E7E6F7F6B7E517F1131
:1009D000D8B40DD0160EA825016E010EA921026E05
:1009E000300E036E080E046ECDEC18F0B2D7160E62
:1009F000A825016E010EA921026E380E036E080EA5
:100A0000046ECDEC18F0A5D7000E0001AA6F000E01
:100A1000AB6F800EAC6F3F0EAD6F000EA76F000E78
:100A2000A66FA2C001F0A3C002F0A4C003F0A5C04D
:100A300004F0000E056E000E066E000E076E000E2E
:100A4000086E7DEC17F0D8A01ED076D0AAC00FF0AB
:100A5000ABC010F0ACC011F0ADC012F0000E136EC0
:100A6000000E146E200E156E410E166ED3EC0EF0B5
:100A70000FC0AAF010C0ABF011C0ACF012C0ADF0C6
:100A80000001A64BA72BA2C028F0A3C029F0A4C048
:100A90002AF0A5C02BF0000E136E000E146E200E6F
:100AA000156E410E166EAAC00FF0ABC010F0ACC0B0
:100AB00011F0ADC012F0D3EC0EF00FC02CF010C04E
:100AC0002DF011C02EF012C02FF063EC15F0D8A05D
:100AD0001FD0BCD7AAC034F0ABC035F0ACC036F0E4
:100AE000ADC037F0000E386E000E396E200E3A6E33
:100AF000410E3B6E02EC12F034C0AAF035C0ABF0F0
:100B000036C0ACF037C0ADF00001A607D8A0A707EB
:100B1000A2C028F0A3C029F0A4C02AF0A5C02BF0E1
:100B2000AAC02CF0ABC02DF0ACC02EF0ADC02FF0A1
:100B300063EC15F0D8A0CED770C007F0086AF6ECC9
:100B400018F007500001976F97C094F0670E97193F
:100B5000D8A419D0EF51F011D8A404D0000EF06F32
:100B6000010EEF6FF0BF05D0F05108E1EF05D8B0EE
:100B700005D0000E936F060E926F08D0EFC092F072
:100B8000F0C093F003D0F0AFF9D7F3D7670E971901
:100B9000D8A422D0A7AF06D0FC0EA65DFF0EA759A1
:100BA000D8A018D0FF0E716FFF0E726F92C073F055
:100BB00093C074F07151732772517423A651735D01
:100BC0007451800A756FA751800A7559D8A002D058
:100BD000660E01D0650E946F92C08AF093C08BF0C0
:100BE000670E9719D8A405D0660E9419D8B4A7AF8C
:100BF00002D08A4B8B2B660E9419D8A416D0A7AFBF
:100C00000CD0000EAA6F000EAB6F800EAC6F3F0EC3
:100C1000AD6F000EA76F000EA66F670E9719D8B4C0
:100C200004D0A6518A27A7518B23000EA16F000E76
:100C3000A06FA2C098F0A3C099F0A4C09AF0A5C07C
:100C40009BF0AAC076F0ABC077F0ACC078F0ADC036
:100C500079F07BD098C034F099C035F09AC036F066
:100C60009BC037F0AAC038F0ABC039F0ACC03AF046
:100C7000ADC03BF002EC12F034C04DF035C04EF088
:100C800036C04FF037C050F046EC13F04DC09CF02A
:100C90004EC09DF04FC09EF050C09FF09CC060F0D1
:100CA0009DC061F09EC062F09FC063F031EC16F011
:100CB00060C08EF061C08FF098C060F099C061F0A4
:100CC0009AC062F09BC063F0AAC013F0ABC014F0EE
:100CD000ACC015F0ADC016F09CC00FF09DC010F078
:100CE0009EC011F09FC012F0D3EC0EF00FC064F064
:100CF00010C065F011C066F012C067F068EC19F022
:100D000060C098F061C099F062C09AF063C09BF037
:100D1000AAC034F0ABC035F0ACC036F0ADC037F08F
:100D2000000E386E000E396E200E3A6E410E3B6E8C
:100D300002EC12F034C0AAF035C0ABF036C0ACF013
:100D400037C0ADF00001A04BA12B8A51A05DA1518D
:100D5000800A716F8B51800A7159D8A07BD7AAC0C5
:100D60000FF0ABC010F0ACC011F0ADC012F0000E2F
:100D7000136E000E146EA00E156E400E166ED3ECA0
:100D80000EF00FC09CF010C09DF011C09EF012C07C
:100D90009FF098C028F099C029F09AC02AF09BC013
:100DA0002BF09CC02CF09DC02DF09EC02EF09FC05B
:100DB0002FF063EC15F0D8B003D0000E000118D06E
:100DC00098C001F099C002F09AC003F09BC004F0F3
:100DD0009CC005F09DC006F09EC007F09FC008F0C3
:100DE0007DEC17F0D8A00BD000018EB108D0000E1A
:100DF0009C6F000E9D6F000E9E6F000E9F6FA2C035
:100E00004DF0A3C04EF0A4C04FF0A5C050F09CC060
:100E100051F09DC052F09EC053F09FC054F07CEC46
:100E200010F04DC098F04EC099F04FC09AF050C0ED
:100E30009BF076C0AAF077C0ABF078C0ACF079C078
:100E4000ADF0650E00019419D8B405D0A6C08CF0A1
:100E5000A7C08DF004D0000E8D6F000E8C6F000EB9
:100E6000896F000E886F000E876F000E866F000E70
:100E7000A16F000EA06FC6D098C034F099C035F0B5
:100E80009AC036F09BC037F0AAC038F0ABC039F03A
:100E9000ACC03AF0ADC03BF002EC12F034C04DF003
:100EA00035C04EF036C04FF037C050F046EC13F06E
:100EB0004DC09CF04EC09DF04FC09EF050C09FF0C2
:100EC0009CC060F09DC061F09EC062F09FC063F066
:100ED00031EC16F060C08EF061C08FF00001F1B906
:100EE0000CD08E518F11D8A408D0670E9719D8B4A2
:100EF0008DAF03D0864B872B39D088518911D8B458
:100F00008DAF22D0160EA825D96E010EA921DA6E5A
:100F10002E0EDF6EA84BA92B9507D8A09607000EC2
:100F2000896F010E886F10D0160EA825D96E010E9C
:100F3000A921DA6E300EDF6EA84BA92B9507D8A039
:100F400096078607D8A0870786518711D8A4ECD7C3
:100F5000160EA825D96E010EA921DA6E8E51300F1A
:100F6000DF6EA84BA92B9507D8A0960798C060F014
:100F700099C061F09AC062F09BC063F0AAC013F000
:100F8000ABC014F0ACC015F0ADC016F09CC00FF0B3
:100F90009DC010F09EC011F09FC012F0D3EC0EF077
:100FA0000FC064F010C065F011C066F012C067F0A9
:100FB00068EC19F060C098F061C099F062C09AF0D6
:100FC00063C09BF0AAC034F0ABC035F0ACC036F0C3
:100FD000ADC037F0000E386E000E396E200E3A6E3E
:100FE000410E3B6E02EC12F034C0AAF035C0ABF0FB
:100FF00036C0ACF037C0ADF000018C07D8A08D072B
:10100000A04BA12B8A51A05DA151800A716F8B5119
:10101000800A7159D8B008D0A9BF2ED7A95104E1D0
:101020004B0EA85DD8A028D788518911D8B4F1A952
:101030000AD0160EA825D96E010EA921DA6E2E0E41
:10104000DF6EA84BA92B160EA825D96E010EA9217B
:10105000DA6E000EDF6E650E9419D8A47FD4000EF0
:10106000A16F4F0EA06F160EA025D96E010EA12103
:10107000DA6E000EDF6E000E916F000E906FA7AF5C
:1010800008D0000E916F010E906FA66DA71FD8B00B
:10109000A72B000E936F020E926F2BD0A007D8A043
:1010A000A107160EA025D96E010EA121DA6EA6C0E9
:1010B00001F0A7C002F0000E046E0A0E036E41ECB0
:1010C00018F00150300FDF6EA6C001F0A7C002F08B
:1010D000000E046E0A0E036EC2EC17F001C0A6F0FB
:1010E00002C0A7F000019207D8A093079507D8A0E7
:1010F0009607A651A711D8A4D1D793BF05D0935175
:10110000CDE19205D8B0CAD7A007D8A0A1079051C9
:101110009111D8A404D0000E816F2B0E03D0000EC5
:10112000816F2D0E806F160EA025D96E010EA121A4
:10113000DA6E80C0DFFF9507D8A09607A007D8A079
:10114000A107BF0E716FFF0E726F7051736F746BDA
:101150007151732772517423745106E11A0E735D35
:10116000D8B002D0010E01D0000E846F856B84517F
:101170008511D8A404D0000E836F650E03D0000E35
:10118000836F450E826F160EA025D96E010EA12128
:10119000DA6E82C0DFFF9507D8A09607160EA82545
:1011A000016E010EA921026E160EA025036E010E1E
:1011B000A121046ECDEC18F0AEEF04F0B0C0D9FF61
:1011C000B1C0DAFFDECFF6FFDDCFF7FF0800F55044
:1011D000250AD8A4F3D1B0C0D9FFB1C0DAFFDE2A06
:1011E000000EDD22000E0001EE6F000EED6FEDC06F
:1011F000F1F0EEC0F2F0EF69F069000EB96F000E89
:1012000014D0F181B0C0D9FFB1C0DAFFDE2A000EE0
:10121000DD222ED0F183F6D7F185F4D7F187F2D70E
:10122000F189F0D7000EB96F010EB86F21D0B0C0B0
:10123000D9FFB1C0DAFFDECFF6FFDDCFF7FF080040
:10124000F550B46FB56BB551000AD8A4EBD7B451C3
:10125000200AD8B4E3D7030AD8B4E2D7080AD8B42E
:10126000DBD7060AD8B4CDD71D0AD8B4D3D7DAD77E
:10127000B851B911D8B4DBD7F1B1F193B0C0D9FFEF
:10128000B1C0DAFFDECFF6FFDDCFF7FF0800F55083
:101290002E0AD8A46ED0000EF06F000EEF6FB0C013
:1012A000D9FFB1C0DAFFDE2A000EDD22B0C0D9FFBF
:1012B000B1C0DAFFDECFF6FFDDCFF7FF0800F55053
:1012C0002A0AD8A41CD0B0C0D9FFB1C0DAFFDE2AE8
:1012D000000EDD22B2C0D9FFB3C0DAFFDFCFB4F019
:1012E000020EDE26DFCFB5F0000EDD22B4C0D9FF3E
:1012F000B5C0DAFFDECFEFF0DDCFF0F03AD0B0C00E
:10130000D9FFB1C0DAFFDECF08F0DDCF09F023EC62
:1013100014F008C0EFF009C0F0F007D0B0C0D9FF5A
:10132000B1C0DAFFDE2A000EDD22D00E0001B46F5C
:10133000FF0EB56FB0C0D9FFB1C0DAFFDECFF6FF48
:10134000DDCFF7FF0800F550B66FB76BB451B62785
:10135000B551B723B75106E10A0EB65DD8B002D039
:10136000010E01D0000EBA6FBB6BBA51BB11D8A4ED
:10137000D5D7B0C0D9FFB1C0DAFFDECFF6FFDDCFE1
:10138000F7FF0800F550076E086AF6EC18F00750F2
:101390000001C26FC251D8B435D0B0C0D9FFB1C0BE
:1013A000DAFFDECFB4F0DDCFB5F0010EB427000ECA
:1013B000B523B4C0F6FFB5C0F7FF0800F550076EBF
:1013C000086AF6EC18F007500001C36FC351D8B497
:1013D00019D0B0C0D9FFB1C0DAFFDECFB4F0DDCF95
:1013E000B5F0020EB427000EB523B4C0F6FFB5C0A9
:1013F000F7FF0800F550076E086AF6EC18F0075082
:101400000001C46F660EC219D8A43FD0B0C0D9FF86
:10141000B1C0DAFFDECFF6FFDDCFF7FF0800F5CF72
:10142000C5F0B0C0D9FFB1C0DAFFDE2A000EDD2260
:10143000B2C0D9FFB3C0DAFFDFCFB4F0040EDE26AE
:10144000DFCFB5F0000EDD22B4C0D9FFB5C0DAFFA2
:10145000DECFBEF0DECFBFF0DECFC0F0DECFC1F01A
:10146000AEC06AF0AFC06BF0BEC06CF0BFC06DF034
:10147000C0C06EF0C1C06FF0C5C070F020EC04F0C9
:101480006AC0AEF06BC0AFF01200C20E016E000E6B
:10149000026E3C0E036E080E046E000E066E020E07
:1014A000056E8FEC16F001500210D8A456D0B0C0D3
:1014B000D9FFB1C0DAFFDECFB4F0DDCFB5F0010E59
:1014C0000001B427000EB523B4C0F6FFB5C0F7FF86
:1014D0000800F5CFC5F0BF0EB46FFF0EB56FB0C0FA
:1014E000D9FFB1C0DAFFDECFF6FFDDCFF7FF08008E
:1014F000F550B66FB76BB451B627B551B723B75196
:1015000006E11A0EB65DD8B002D0010E01D0000E71
:10151000BC6FBD6BBC51BD11B2C0D9FFB3C0DAFF07
:10152000DFCFB4F0040EDE26DFCFB5F0000EDD22F3
:10153000B4C0D9FFB5C0DAFFDECFBEF0DECFBFF05A
:10154000DECFC0F0DECFC1F0020EB0C0D9FFB1C017
:10155000DAFFDE26000EDD2283D7B0C0D9FFB1C08E
:10156000DAFFDECFF6FFDDCFF7FF0800F550250AE2
:10157000D8A417D0B0C0D9FFB1C0DAFFDE2A000E60
:10158000DD22000E026E250E016EAEC003F0AFC06C
:1015900004F0E0EC16F0000E0001AF6F010EAE6F2C
:1015A0001200B0C0D9FFB1C0DAFFDE2A000EDD2282
:1015B000000E0001AF6F000EAE6F1200B0C0D9FF79
:1015C000B1C0DAFFDECFF6FFDDCFF7FF0800F55040
:1015D000016E026AAEC003F0AFC004F0E0EC16F09A
:1015E000B0C0D9FFB1C0DAFFDE2A000EDD22D3D7AA
:1015F00060C075F061C076F062C077F063C078F0CB
:1016000075C08DF076C08EF077C08FF078C090F006
:10161000000E00018D15646F000E8E15656F800E33
:101620008F15666F7F0E9015676F800E661933E118
:101630007F0E671964116511D8A42DD060C013F016
:1016400061C014F062C015F063C016F060C00FF006
:1016500061C010F062C011F063C012F0D3EC0EF064
:101660000FC04DF010C04EF011C04FF012C050F03E
:1016700060C051F061C052F062C053F063C054F0DA
:101680007CEC10F04DC060F04EC061F04FC062F0D5
:1016900050C063F0120090BF07D090518F118E118F
:1016A00033E18D05D8B030D0FF0E8D15646FFF0E7D
:1016B0008E15656FFF0E8F15666F7F0E9015676F25
:1016C0006451651166116711D8A409D060C060F03B
:1016D00061C061F062C062F063C063F0120090AF5D
:1016E00013D0000EEA6F210EE96F120E016E080E84
:1016F000026EA7EC1AF001C060F002C061F003C0F6
:1017000062F004C063F01200170E646F8DC065F0C4
:101710008EC066F08FC067F090C068F0646701D03B
:1017200007D068356833673366336533642FF6D77F
:1017300065C085F066C086F067C087F068C088F035
:1017400000018551861187118811D8A42AD0000E76
:10175000716F000E726F000E736F000E746F0BD0FE
:10176000D8908D378E378F379037010E7127000E46
:101770007223732374238FAFF3D7FF0E7125646F29
:10178000FF0E7221656FFF0E7321666FFF0E7421CD
:10179000676F6451855F6551865B6651875B6751F2
:1017A000885B810E8527FF0E8623FF0E8723FF0EA1
:1017B0008823FF0E8D15646FFF0E8E15656F7F0EEB
:1017C0008F15666F000E9015676F000E64118D6F98
:1017D000000E65118E6F800E66118F6F000E6711FF
:1017E000906F85A108D08D518D278E518E238F51FA
:1017F0008F23905190238835883387338633853300
:101800008D518D278E518E238F518F239051902390
:10181000000E6D6F000E6E6F000E6F6F000E706F1A
:101820006DC079F06EC07AF06FC07BF070C07CF054
:10183000000E896F000E8A6F000E8B6F010E8C6F89
:1018400043D089516D257D6F8A516E217E6F8B51FA
:101850006F217F6F8C517021806F7D518D5D7E5126
:101860008E597F518F599051800A646F8051800A40
:101870006459D8A01CD089517D256D6F8A517E2175
:101880006E6F8B517F216F6F8C518021706F7D51F6
:101890008D5F7E518E5B7F518F5B8051905B895154
:1018A00079278A517A238B517B238C517C238D514C
:1018B0008D278E518E238F518F2390519023D89056
:1018C0008C338B338A33893389518A118B118C1174
:1018D000D8A4B7D78D518E118F119011D8B455D08F
:1018E000000E816F000E826F800E836F3F0E846F3B
:1018F00081C028F082C029F083C02AF084C02BF078
:10190000000E2C6E000E2D6E800E2E6E3F0E2F6E72
:1019100063EC15F0D8A039D0000E0001816F000EE5
:10192000826F800E836F3F0E846F000E286E000E54
:10193000296E800E2A6E3F0E2B6E81C02CF082C065
:101940002DF083C02EF084C02FF063EC15F0D8B0DA
:1019500007D0020E00017927000E7A237B2314D0D2
:10196000010E00017915646F000E7A15656F000E87
:101970007B15666F000E7C15676F64517927655182
:101980007A2366517B2367517C2379C064F07AC047
:1019900065F07BC066F07CC067F000016735673397
:1019A000663365336433000E64258D6F000E652148
:1019B0008E6F000E66218F6F3F0E6721906F85C07E
:1019C00064F086C065F087C066F088C067F0170EC7
:1019D000D8906437653766376737E82EF9D7645192
:1019E0008D2765518E2366518F23675190238DC0BB
:1019F00075F08EC076F08FC077F090C078F075C02B
:101A000081F076C082F077C083F078C084F081C026
:101A100060F082C061F083C062F084C063F01200A5
:101A2000720ED36E000E946E2BEC1AF0B8EC1AF016
:101A3000D9EC1AF0CFEC1AF0000E026E000E016E17
:101A400004EC18F001C0F9F002C0FAF00001F951FD
:101A5000F55DF651800AE06FFA51800AE059D8B07E
:101A600010D0F951F525016EFA51F621026E000EE3
:101A7000046E020E036EC2EC17F001C0F5F002C056
:101A8000F6F0F40E0001F35D010EF459D8A0D4D79E
:101A9000000E136E000E146E000E156E3F0E166EC5
:101AA000F5C001F0F6C002F0000E02BEFF0E036E9C
:101AB000046E010EC3EC14F001C00FF002C010F070
:101AC00003C011F004C012F0D3EC0EF00FC051F0BF
:101AD00010C052F011C053F012C054F0000E136E3B
:101AE000000E146E000E156E3F0E166EFBC001F058
:101AF000FCC002F0000E02BEFF0E036E046E010E6B
:101B0000C3EC14F001C00FF002C010F003C011F0DC
:101B100004C012F0D3EC0EF00FC04DF010C04EF028
:101B200011C04FF012C050F07CEC10F04DC060F0CE
:101B30004EC061F04FC062F050C063F031EC16F05F
:101B400060C0F5F061C0F6F0000E386EC00E396E60
:101B50007F0E3A6E440E3B6E000E136E000E146E36
:101B6000A00E156E400E166EF5C001F0F6C002F024
:101B7000000E02BEFF0E036E046E010EC3EC14F0E5
:101B800001C00FF002C010F003C011F004C012F049
:101B9000D3EC0EF00FC034F010C035F011C036F0A9
:101BA00012C037F002EC12F034C04DF035C04EF0E8
:101BB00036C04FF037C050F0000E516E000E526E1E
:101BC000200E536EC00E546E7CEC10F04DC0E5F04C
:101BD0004EC0E6F04FC0E7F050C0E8F0000E000144
:101BE000606F000E616F000E626F400E636FF8EC65
:101BF0000AF060C0E1F061C0E2F062C0E3F063C0EF
:101C0000E4F0E5C034F0E6C035F0E7C036F0E8C0F7
:101C100037F0CD0E136ECC0E146E4C0E156E3E0EBC
:101C2000166EE1C00FF0E2C010F0E3C011F0E4C0A6
:101C300012F0D3EC0EF00FC038F010C039F011C024
:101C40003AF012C03BF002EC12F034C0E5F035C0BF
:101C5000E6F036C0E7F037C0E8F0E5C028F0E6C0AF
:101C600029F0E7C02AF0E8C02BF0000E2C6E000E21
:101C70002D6E200E2E6E410E2F6E63EC15F0D8B037
:101C800017D00001E8AF27D0000E286E000E296E95
:101C9000200E2A6EC10E2B6EE5C02CF0E6C02DF092
:101CA000E7C02EF0E8C02FF063EC15F0D8B013D0E9
:101CB000660E0001CE6F010ECF6F130ED06F080EAF
:101CC000D16FE5C0D2F0E6C0D3F0E7C0D4F0E8C0F1
:101CD000D5F0A4EC18F0000E286E000E296E200E30
:101CE0002A6EC10E2B6EE5C02CF0E6C02DF0E7C0C9
:101CF0002EF0E8C02FF063EC15F0D8A013D0660EDC
:101D00000001CE6F010ECF6F200ED06F080ED16F85
:101D1000E5C0D2F0E6C0D3F0E7C0D4F0E8C0D5F01B
:101D2000A4EC18F00001E8BF27D0E5C028F0E6C019
:101D300029F0E7C02AF0E8C02BF0000E2C6E000E50
:101D40002D6E200E2E6E410E2F6E63EC15F0D8B066
:101D500013D0660E0001CE6F010ECF6F050ED06F4F
:101D6000080ED16FE5C0D2F0E6C0D3F0E7C0D4F0E2
:101D7000E8C0D5F0A4EC18F0010E0B6E660E0C6EE8
:101D8000010E0D6E020EC7EC19F0000E0001F46F8B
:101D9000000EF36FF5C0FBF0F6C0FCF0000EF66F1E
:101DA000000EF56F49D61250800B1B6E1250122494
:101DB000216E11BE21802150D8B40DD02128D8A485
:101DC00008D0000E0F6E000E106E000E116E000E89
:101DD000126E118E08D0000E0F6E000E106E000EE7
:101DE000116E000E126E1650800B1B1A1650162420
:101DF000206E15BE20802050D8B40DD02028D8A445
:101E000008D0000E136E000E146E000E156E000E3C
:101E1000166E158E08D0000E136E000E146E000E96
:101E2000156E000E166E2050D8B403D02150D8A4E1
:101E300009D0000E0F6E000E106E000E116E000E17
:101E4000126E120015500F02F3CF26F0F4CF27F0D8
:101E500026501C6E1D6A1E6A1F6A2750226E236A56
:101E6000246A256A14501002F3CF26F0F4CF27F02D
:101E700026501C26000E1D221E221F22275022261D
:101E8000000E23222422252213501102F3CF26F024
:101E9000F4CF27F026501C26000E1D221E221F22E2
:101EA00027502226000E2322242225221EC01FF0A6
:101EB0001DC01EF01CC01DF01C6A13501002F3CF91
:101EC00026F0F4CF27F026501C2627501D22000EA6
:101ED0001E22000E1F2214500F02F3CF26F0F4CF63
:101EE00027F026501C2627501D22000E1E22000E11
:101EF0001F221EC01FF01DC01EF01CC01DF01C6A5A
:101F000013500F02F3CF26F0F4CF27F026501C26F3
:101F100027501D22000E1E22000E1F2215501002F7
:101F2000F3CF26F0F4CF27F0265022262750232285
:101F3000000E2422000E252214501102F3CF26F0A9
:101F4000F4CF27F02650222627502322000E2422E9
:101F5000000E252215501102F3CF26F0F4CF27F002
:101F60002650176E2750186E196A1A6A19C01AF08F
:101F700018C019F017C018F0176A17502226185009
:101F80002322195024221A5025221CC017F01DC0EC
:101F900018F01EC019F01FC01AF0190E05D0D89005
:101FA0001A32193218321732E82EF9D71750222672
:101FB00018502322195024221A5025221EC01FF027
:101FC0001DC01EF01CC01DF01C6A205021C017F05F
:101FD000186A1726000E1822820E1724266EFF0E8E
:101FE0001820276E0FD0D890223623362436253677
:101FF0001FBE2280D8901C361D361E361F36260680
:10200000D8A0270624AEEFD7000E206E1FAE17D043
:10201000FF0E1C14176EFF0E1D14186EFF0E1E14FB
:10202000196E7F0E1F141A6E1750181019101A10FF
:10203000D8B403D0010E206E02D022B0FBD72050BE
:10204000D8B41FD0010E2226000E232224222522DE
:1020500025A017D022C017F023C018F024C019F013
:1020600025C01AF01A341A3219321832173217C032
:1020700022F018C023F019C024F01AC025F0264A17
:10208000272A27BE0DD0275003E12628D8A008D044
:10209000000E226E000E236E800E246E7F0E20D066
:1020A00027BE05D027500EE12604D8B00BD0000E75
:1020B000226E000E236E000E246E000E256E000EA2
:1020C0001B6E0FD026C021F0FF0E2216FF0E231626
:1020D0007F0E2416000E251621B0248ED8902130B4
:1020E000256E1B50251222C00FF023C010F024C013
:1020F00011F025C012F012005050800B596E505054
:1021000050245B6E4FBE5B805B50D8B40DD05B2813
:10211000D8A408D0000E4D6E000E4E6E000E4F6E0D
:10212000000E506E4F8E06D0000E4D6E000E4E6E9D
:10213000000E4F6E000E506E5450800B5A6E595068
:102140005A18D8A4598C545054245A6E53BE5A80ED
:102150005A50D8B40DD05A28D8A408D0000E516EC9
:10216000000E526E000E536E000E546E538E06D04B
:10217000000E516E000E526E000E536E000E546E25
:102180005B505A5CD8B022D059AC02D0800E591A9C
:102190005BC05CF05AC05BF05CC05AF04DC05CF0B4
:1021A00051C04DF05CC051F04EC05CF052C04EF0DA
:1021B0005CC052F04FC05CF053C04FF05CC053F0B5
:1021C00050C05CF054C050F05CC054F0000E5C6E27
:1021D0005B505AC055F0566A555E000E565A56BEB0
:1021E0002CD0565004E11A0E555CD8A026D04D5084
:1021F0004E104F105010D8B402D0010E01D0000E76
:102200005C6E000E4D6E000E4E6E000E4F6E000E98
:10221000506E5AC05BF015D05CA005D0D8905C30F1
:1022200001095C6E02D0D8905C324DB05C8E5034A7
:1022300050324F324E324D325B2A5A505B5CD8A03E
:10224000EBD759BC28D05B50D8A409D0000E4D6EF6
:10225000000E4E6E000E4F6E000E506E120051506A
:102260004D2652504E2253504F225450502250A0CF
:1022700071D05CA005D0D8905C3001095C6E02D0B2
:10228000D8905C324DB05C8E503450324F324E326A
:102290004D325B2A5FD051504D5C52504E585350D6
:1022A0004F585050800A556E5450800A5558D8B037
:1022B00025D04D50515C556E4E505258566E4F5071
:1022C0005358576E50505458586EFF0E55244D6E4B
:1022D000FF0E56204E6EFF0E57204F6EFF0E5820F9
:1022E000506E800E591A5C6C5C50D8A40FD0010E51
:1022F0004D26000E4E224F22502208D051504D5EE6
:1023000052504E5A53504F5A5450505A4D504E10EE
:102310004F105010D8A41CD05C50D8A419D0000E77
:102320004D6E000E4E6E000E4F6E000E506E12007F
:10233000D8904D364E364F3650365CBE4D805CA040
:1023400002D0D88001D0D8905C365B50D8A45B0610
:102350004FAEEED7000E5A6E5CAE0BD05CC055F09F
:102360007F0E5516D8B403D0010E5A6E02D04DB070
:10237000FBD75A50D8B420D0010E4D26000E4E2265
:102380004F22502250A018D04DC055F04EC056F0EC
:102390004FC057F050C058F0583458325732563268
:1023A000553255C04DF056C04EF057C04FF058C092
:1023B00050F05B28D8A45B2A5B28D8B403D05B50CC
:1023C000D8A40DD0000E4D6E000E4E6E000E4F6E56
:1023D000000E506E5B50D8A402D0000E596E5BA068
:1023E00002D04F8E01D04F9ED8905B30506E59BEB8
:1023F000508E4DC04DF04EC04EF04FC04FF050C00B
:1024000050F012003750800B446E375037244B6E1B
:1024100036BE4B804B50D8B40DD04B28D8A408D032
:10242000000E346E000E356E000E366E000E376EE6
:10243000368E06D0000E346E000E356E000E366EEF
:10244000000E376E3B50800B441A3B503B244C6EC1
:102450003ABE4C804C50D8B40DD04C28D8A408D0EB
:10246000000E386E000E396E000E3A6E000E3B6E96
:102470003A8E06D0000E386E000E396E000E3A6E9F
:10248000000E3B6E385039103A103B10D8A417D0CC
:10249000000E346E000E356E000E366E000E376E76
:1024A000800E36127F0E37124450371234C034F08B
:1024B00035C035F036C036F037C037F012004B501B
:1024C000D8A409D0000E346E000E356E000E366EA4
:1024D000000E376E12004C504BC03CF03D6A3C5E23
:1024E000000E3D5A7F0E3C24456E000E3D20466E88
:1024F00034C040F035C041F036C042F037C043F040
:10250000000E346E000E356E000E366E000E376E05
:10251000000E476E000E486E000E496E000E4A6EA9
:10252000000E4C6E28D04C50D8B411D0D890403604
:10253000413642364336D89034363536363637361D
:102540004ABE3480D8904736483649364A363850E5
:10255000405C395041583A5042583B504358D8A0FB
:1025600009D04A8C3850405E3950415A3A50425A4C
:102570003B50435A4C2A190E4C64D5D74050411059
:1025800042104310D8B411D047800FD0D8903436C1
:102590003536363637364ABE3480D89047364836D8
:1025A00049364A364506D8A0460636AEEFD7000E65
:1025B0004C6E4AAE17D0FF0E47143C6EFF0E481407
:1025C0003D6EFF0E49143E6E7F0E4A143F6E3C5026
:1025D0003D103E103F10D8B403D0010E4C6E02D017
:1025E00034B0FBD74C50D8B41FD0010E3426000EA7
:1025F00035223622372237A017D034C03CF035C000
:102600003DF036C03EF037C03FF03F343F323E32FF
:102610003D323C323CC034F03DC035F03EC036F077
:102620003FC037F0454A462A46BE10D0465003E127
:102630004528D8A00BD0000E466E4568000E346EBB
:10264000000E356E000E366E000E376E46BE05D09B
:10265000465011E14504D8B00ED0000E466E000E73
:10266000456E000E346E000E356E000E366E000E96
:10267000376E000E446E45C04BF04BA002D0368E34
:1026800001D0369ED8904B30376E0ED70AC166F017
:102690000BC167F00CC168F00DC169F04DC066F068
:1026A0004EC067F04FC068F050C069F0810E516EA7
:1026B000FF0E526E66C053F067C054F068C055F00C
:1026C00069C056F0180E05D0D890563255325432A3
:1026D0005332E82EF9D7535051240001646F000E95
:1026E0005220656F65BF0FD0655104E1170E645D20
:1026F000D8A009D04DC04DF04EC04EF04FC04FF0A5
:1027000050C050F0120065BF5FD064C051F0FF0EA2
:10271000526EFF0E536E7F0E546E000E556E516654
:1027200001D007D055345532543253325232512EE3
:10273000F6D752C060F053C061F054C062F055C08B
:1027400063F0000160516615516E61516715526E5C
:1027500062516815536E63516915546E5150521091
:1027600053105410D8B4C6D766C051F067C052F0A9
:1027700068C053F069C054F0200E05D0D890543290
:10278000533252325132E82EF9D751505210531071
:102790005410D8B408D06051662761516723625144
:1027A000682363516923601D516E611D526E621D65
:1027B000536E631D546E5150661752506717535035
:1027C00068175450691736D066C051F067C052F090
:1027D00068C053F069C054F0200E05D0D890543230
:1027E000533252325132E82EF9D751505210531011
:1027F0005410D8A408D0000E666F000E676F000E4C
:10280000686F000E16D0D8906635516E6735526EDF
:102810006835536E6935546E515052105310541030
:10282000D8B408D0000E666F000E676F800E686F18
:10283000BF0E696F66C04DF067C04EF068C04FF0C4
:1028400069C050F01200000E166E000E156E000EDC
:102850000F6E000E0E6E02D0084A092A010E146E89
:1028600008C0F6FF09C0F7FF0800F550200AD8B4E9
:1028700018D0F70E0A6EFF0E0B6E08C0F6FF09C0E7
:10288000F7FF0800F5500C6E0D6A0A500C260B502D
:102890000D220D5004E1050E0C5CD8A002D0000EF4
:1028A000146E14C010F0116A10501110D8B408D072
:1028B000D3D7000E0F6E010E0E6E084A092A2ED0D5
:1028C00008C0F6FF09C0F7FF0800F5500A6E0B6A52
:1028D0000B50000AD8A422D00A502B0AD8B4EDD746
:1028E000060AD8B4E6D71AD015C001F016C002F017
:1028F000000E046E0A0E036E82EC1AF008C0F6FF9A
:1029000009C0F7FF0800F550015E000E025A300EB4
:102910000124156E000E0220166ECFD7D00E0A6E5F
:10292000FF0E0B6E08C0F6FF09C0F7FF0800F55058
:102930000C6E0D6A0A500C260B500D220D5006E14C
:102940000A0E0C5CD8B002D0010E01D0000E126E3F
:10295000136A12501310D8A4C7D70E500F10D8A462
:102960000DD015C00AF016C00BF00A1E0B1E0A4A45
:102970000B2A0AC008F00BC009F0120015C008F0BD
:1029800016C009F01200096E0950D8A404AE1AD07E
:1029900001C005F002C006F003C007F004C008F053
:1029A000051E061E071E081E052A000E0622072207
:1029B000082205C00BF006C00CF007C00DF008C0DF
:1029C0000EF008D001C00BF002C00CF003C00DF0F7
:1029D00004C00EF00150021003100410D8A409D056
:1029E000000E016E000E026E000E036E000E046EED
:1029F0001200960E0A6E06D00A2AD8900E320D32B8
:102A00000C320B32000E0B14056E000E0C14066E09
:102A1000000E0D14076EFE0E0E14086E0550061003
:102A200007100810D8B40DD0E7D70A2A010E0B26DC
:102A3000000E0C220D220E22D8900E320D320C32D6
:102A40000B32000E0B14056E000E0C14066E000EF9
:102A50000D14076EFF0E0E14086E055006100710B9
:102A60000810D8B407D0E1D70A06D8900B360C3638
:102A70000D360E360DBE03D0020E0A60F5D70AA041
:102A80000D9ED8900A320AC005F0066A076A086AE5
:102A900005C008F0076A066A056A05500B12065061
:102AA0000C1207500D1208500E120950D8A404AE93
:102AB00001D00E8E0BC001F00CC002F00DC003F06F
:102AC0000EC004F01200000E2814306E000E2914FF
:102AD000316E800E2A14326E7F0E2B14336E3050FE
:102AE000311032103310D8A408D0000E286E000E1A
:102AF000296E000E2A6E000E2B6E000E2C14306E06
:102B0000000E2D14316E800E2E14326E7F0E2F1497
:102B1000336E3050311032103310D8A408D0000E6C
:102B20002C6E000E2D6E000E2E6E000E2F6E2BAE34
:102B300009D0286C291ED8B0292A2A1ED8B02A2AE2
:102B4000800E2B562FAE09D02C6C2D1ED8B02D2AFE
:102B50002E1ED8B02E2A800E2F56000E281A000ED8
:102B6000291A000E2A1A800E2B1A000E2C1A000E9B
:102B70002D1A000E2E1A800E2F1A2C50285C2D5064
:102B800029582E502A582F502B58D8B002D0D89000
:102B90001200D88012000EC10BF00FC10CF010C152
:102BA0000DF011C10EF001C00BF002C00CF003C01B
:102BB0000DF004C00EF00BC005F00CC006F00DC007
:102BC00007F00EC008F0180E05D0D8900832073272
:102BD00006320532E82EF9D70550096E0A6A095007
:102BE0000A10D8A419D0D8900B34056E0C34066E98
:102BF0000D34076E0E34086E0550061007100810CD
:102C0000D8A405D0000E026E020E016E1200000E56
:102C1000026E030E016E120009280A10D8A41CD0FF
:102C20000BC005F00CC006F00DC007F00EC008F098
:102C3000090ED8900536063607360836E82EF9D73D
:102C40000550061007100810D8A402D0010E01D0BC
:102C5000000E016E026A1200000E026E040E016E7A
:102C600012000001623563355E6E5E50D8A409D053
:102C7000000E606F000E616F000E626F000E636FDA
:102C8000120060C064F061C065F062C066F063C0AD
:102C900067F0200E05D0D890673366336533643310
:102CA000E82EF9D764515D6E628FFF0E6017FF0E3C
:102CB0006117FF0E6217000E6317960E5E5E5EAE22
:102CC0000DD05E50800A970FD8A0D2D7D89063332A
:102CD0006233613360335E3EF9D70DD01F0E5E6400
:102CE00007D0C6D7D89060376137623763375E0642
:102CF0005E50D8A4F7D75D50D8B408D0631F621FC8
:102D0000611F606D000E61236223632360C060F069
:102D100061C061F062C062F063C063F0120001C084
:102D200008F002C009F003C00AF004C00BF0050669
:102D3000D8A0060605280FE10628D8A40CD0000E5E
:102D4000026E000E016E1200084A092A0A4A0B2A76
:102D50000506D8A0060608C0D9FF09C0DAFFDF5073
:102D6000D8B41CD00AC0F6FF0BC0F7FF0800F5501E
:102D70000009D8B413D005500610D8B40FD008C03D
:102D8000D9FF09C0DAFFDF50076E0AC0F6FF0BC09B
:102D9000F7FF0800F5500718D8B4D6D708C0D9FFF8
:102DA00009C0DAFFDF50076E0AC0F6FF0BC0F7FF5D
:102DB0000800F550075C016E026AD8A002061200F6
:102DC00003500410D8B404D003500410D8A404D085
:102DD0000150E3EC1AF0120020EE04F00350D92663
:102DE0000450DA22DE50DE10D8B416D020EE04F003
:102DF0000350D9260450DA2210EE02F00350E126E7
:102E00000450E222DE50E65CE650800A096EDE5095
:102E1000800A0958D8B0120020EE02F00350D926DB
:102E20000450DA22DECF05F0DDCF06F003C0D9FF73
:102E300004C0DAFFDECF07F0DDCF08F0055007242D
:102E4000D96E06500820DA6E01C0DFFF20EE02F0D6
:102E50000350D9260450DA22DE2A000EDD221200A9
:102E60000001F1A10AD013C00AF014C00BF011C088
:102E70000CF012C00DF0ABEC19F016BE05D015C069
:102E80001AF016C01BF004D0000E1B6E000E1A6E56
:102E9000000E196E000E186E0CD0000E026E200E81
:102EA000016E11C003F012C004F0E0EC16F0184AF5
:102EB000192A1A50185C1950800A176E1B50800A84
:102EC0001758D8A0EAD70001F1B10AD013C00AF010
:102ED00014C00BF011C00CF012C00DF0ABEC19F0E7
:102EE00013C001F014C002F05AEC1AF01A50012479
:102EF000116E1B500220126E1200000E0114096E9A
:102F0000000E02140A6E800E03140B6E7F0E041462
:102F10000C6E09500A100B100C10D8A408D0000E2B
:102F2000016E000E026E000E036E000E046E000EA7
:102F30000514096E000E06140A6E800E07140B6E3F
:102F40007F0E08140C6E09500A100B100C10D8A438
:102F500008D0000E056E000E066E000E076E000E05
:102F6000086E055001180AE10650021807E10750E3
:102F7000031804E108500418D8B402D0D890120005
:102F8000D8801200000E066E04AE06D0036C041E3C
:102F9000D8B0042A010E066E02AE06D0016C021EE5
:102FA000D8B0022A010E061A000E086E000E076E37
:102FB00003500410D8B41CD0010E056E04D0D89074
:102FC00003360436052A04AEFAD7D89007360836F9
:102FD0000350015C04500258D8A005D00350015E94
:102FE0000450025A0780D89004320332052EEDD7E0
:102FF0000650D8B404D0076C081ED8B0082A07C001
:1030000001F008C002F0120001C003F0D8900336AE
:10301000D89003363C0E0316C250C30B0310C26E89
:10302000C2A203D0036A032A01D0036A010E046E10
:10303000032A02D0D8900436032EFCD7C2A003D0B6
:10304000056A052A01D0056A010E066E052A02D01E
:10305000D8900636052EFCD706500410C212C2B214
:10306000FED7C350C4CF03F0046A03C004F0036A60
:103070000310076E0450086E07C001F008C002F08C
:103080001200000E066E02AE06D0016C021ED8B011
:10309000022A010E066E04AE04D0036C041ED8B0E2
:1030A000042A03500410D8B418D0010E056E04D0C1
:1030B000D89003360436052A04AEFAD70350015CD3
:1030C00004500258D8A004D00350015E0450025AA4
:1030D000D89004320332052EF1D70650D8B404D06C
:1030E000016C021ED8B0022A01C001F002C002F039
:1030F0001200C8C0CCF0C9C0CDF0000E0001EC6FCA
:10310000000EEB6F13D0C6C0AEF0C7C0AFF0CC0E50
:10311000B06F000EB16FCAC0B2F0CBC0B3F0DEEC3E
:1031200008F00001AE51EB27AF51EC23CCC0F6FF05
:10313000CDC0F7FF0800F5500009D8A4E4D7EBC0D4
:10314000C6F0ECC0C7F01200D20E0001D86F000E1E
:10315000D96FCEC0DAF0CFC0DBF0000EDD6F000E0D
:10316000DC6F000EDF6F000EDE6FDA0EC66F000E32
:10317000C76FD0C0C8F0D1C0C9F0D80ECA6F000E5A
:10318000CB6F79EC18F00001DC51CE25D96EDD5102
:10319000CF21DA6E000EDF6E120003C007F004C00C
:1031A00008F001C009F002C00AF00750056E08508F
:1031B000066E074A082A05C0F6FF06C0F7FFF86A40
:1031C00009C0D9FF0AC0DAFF094A0A2A070EF764C4
:1031D00003D00800F55005D0F6CFE1FFF7CFE2FFAE
:1031E000E750DF6EDF50D8B41200DFD7BF0E096E94
:1031F000FF0E0A6E07C00BF008C00CF009500B263A
:103200000A500C220C5006E11A0E0B5CD8B002D00A
:10321000010E01D0000E0D6E0E6A0D500E10D8B4C6
:1032200006D0200E0710076E0850086E120007C067
:1032300007F008C008F01200086E08C007F0F00E92
:1032400007168A500F0B07108A6E8A808A8200F058
:103250008A92000E026E010E016EE1EC19F008C0B8
:1032600007F0073AF00E07168A500F0B07108A6E08
:103270008A8200F08A92000E026E030E016EE1EC6B
:1032800019F01200086E08C007F0F00E07168A50F9
:103290000F0B07108A6E8A908A8200F08A92000EC5
:1032A000026E010E016EE1EC19F008C007F0073A5A
:1032B000F00E07168A500F0B07108A6E8A8200F0F4
:1032C0008A92000E026E030E016EE1EC19F01200FC
:1032D000000E0001641B000E651B000E661B800EB5
:1032E000671B60C04DF061C04EF062C04FF063C01C
:1032F00050F064C051F065C052F066C053F067C032
:1033000054F07CEC10F04DC060F04EC061F04FC046
:1033100062F050C063F01200010E076E200E01181B
:103320000210D8B414D0F70E036EFF0E046E01C065
:1033300005F002C006F00350052604500622065090
:1033400004E1050E055CD8A002D0000E076E07C090
:1033500001F0026A1200000E106E000E0F6E0BD00C
:103360000EC001F0026A0CC003F00DC004F0E0ECE6
:1033700016F00F4A102A0F500A24D96E10500B2055
:10338000DA6EDF500E6E0E50D8B41200E9D70E6E12
:10339000020E0E6008D00B500F0B80090F6E0F50FD
:1033A00042EC19F007D00B500F0BC0090F6E0F50F5
:1033B00042EC19F00CC009F00DC00AF095EC1AF0BF
:1033C0001200000E046E000E036E0ED0000E066E8C
:1033D000000E056E054A062A065004E1A50E055C9E
:1033E000D8A0F8D7034A042A0150035C02500458BD
:1033F000D8B01200EBD7BF0E036EFF0E046E01C0F3
:1034000005F002C006F003500526045006220650BF
:1034100006E11A0E055CD8B002D0010E01D0000EF4
:10342000016E026A1200D00E036EFF0E046E01C020
:1034300005F002C006F0035005260450062206508F
:1034400006E10A0E055CD8B002D0010E01D0000ED4
:10345000016E026A1200000E936E000E026E0F0ED5
:10346000016EE1EC19F0020E42EC19F0280E42EC6C
:1034700019F0010E42EC19F00C0E42EC19F0060E98
:1034800042EC19F012000150021003100410D8B4DD
:1034900008D0000E011A000E021A000E031A800E48
:1034A000041A01C001F002C002F003C003F004C01E
:1034B00004F0120001C003F002C004F002D0014A7F
:1034C000022A01C0D9FF02C0DAFFDF50D8A4F7D723
:1034D0000350015C016E04500258026E120001EEAE
:1034E00000F0700EEE6AE806FDE100EEE5F0180E61
:1034F000EE6AE806FDE15F905F92000EF86E000153
:1035000010EF0DF001500302F3CF05F0F4CF06F0F9
:1035100001500402F350062602500302F35006261F
:1035200005C001F006C002F0120009D009C0D9FFA1
:103530000AC0DAFFDF501CEC19F0094A0A2A09C058
:10354000D9FF0AC0DAFFDF50D8B41200EFD7FF0E60
:10355000056EFF0E066EFF0E076E7F0E086E05C02D
:1035600001F006C002F007C003F008C004F012002A
:10357000F28EF28C9D809E90800ECD6EF80ECF6EF6
:10358000560ECE6ECD80120006000001F34BF42BD8
:10359000F80ECF6E560ECE6E9E905F921100010E09
:1035A00042EC19F0000E026E030E016EE1EC19F010
:1035B000120092680D0EC16E920EC06E000EC46EA7
:0835C000000EC36E12001200A0
:020000040020DA
:08000000FFFFFFFFFFFFFFFF00
:020000040030CA
:0E00000000091F1EFF0381FF0FC00FE00F401D
:00000001FF
