:020000040000FA
:0400000007EF00F016
:0A0008005F8291ED1BF059EF1BF031
:10080000006042A20D503D25302E3266205700492F
:100810003D25302E31664100563D25302E3166563D
:1008200000494E46004E414E00696E66006E616E94
:05083000006C660000F1
:10083600000E0001916F000E906F6CC0A2F06DC0AB
:10084600A3F06EC0A4F06FC0A5F0A5AF16D0000E41
:10085600916F010E906FA2C001F0A3C002F0A4C078
:1008660003F0A5C004F02DEC1BF001C0A2F002C0FD
:10087600A3F003C0A4F004C0A5F0000E0001A96F08
:10088600000EA86F2BC195F02CC196F090519111D6
:10089600D8A402D0EFA513D090519111D8A404D0BA
:1008A600000E7B6F2B0E03D0000E7B6F2D0E7A6F22
:1008B6007AC02DF1A84BA92B9507D8A09607A2C000
:1008C60001F0A3C002F0A4C003F0A5C004F0B1EC8F
:1008D60016F001040210D8A44CD0BF0E0001716FAF
:1008E600FF0E726F7051736F746B71517327725173
:1008F6007423745106E11A0E735DD8B002D0010E4E
:1009060001D0000E7C6F7D6B7C517D11D8B40DD06B
:100916002D0EA825016E010EA921026E210E036E71
:10092600080E046EB7EC19F00CD02D0EA825016E3A
:10093600010EA921026E290E036E080E046EB7EC95
:1009460019F00001FD0E9527FF0E96236AC011F0DF
:100956006BC012F02D0E136E010E146E95C015F0BD
:1009660096C016F016EC18F011C06AF012C06BF0C3
:100976001200A2C001F0A3C002F0A4C003F0A5C0FB
:1009860004F0B1EC16F001500210D8A435D0BF0E19
:100996000001716FFF0E726F7051736F746B71513E
:1009A600732772517423745106E11A0E735DD8B021
:1009B60002D0010E01D0000E7E6F7F6B7E517F113B
:1009C600D8B40DD02D0EA825016E010EA921026EF8
:1009D600250E036E080E046EB7EC19F0B2D72D0E75
:1009E600A825016E010EA921026E2D0E036E080EBA
:1009F600046EB7EC19F0A5D7000E0001AA6F000E21
:100A0600AB6F800EAC6F3F0EAD6F000EA76F000E82
:100A1600A66FA2C001F0A3C002F0A4C003F0A5C057
:100A260004F0000E056E000E066E000E076E000E38
:100A3600086E63EC18F0D8A01ED076D0AAC00FF0CE
:100A4600ABC010F0ACC011F0ADC012F0000E136ECA
:100A5600000E146E200E156E410E166EB9EC0FF0D8
:100A66000FC0AAF010C0ABF011C0ACF012C0ADF0D0
:100A76000001A64BA72BA2C028F0A3C029F0A4C052
:100A86002AF0A5C02BF0000E136E000E146E200E79
:100A9600156E410E166EAAC00FF0ABC010F0ACC0BA
:100AA60011F0ADC012F0B9EC0FF00FC02CF010C071
:100AB6002DF011C02EF012C02FF049EC16F0D8A080
:100AC6001FD0BCD7AAC034F0ABC035F0ACC036F0EE
:100AD600ADC037F0000E386E000E396E200E3A6E3D
:100AE600410E3B6EE8EC12F034C0AAF035C0ABF014
:100AF60036C0ACF037C0ADF00001A607D8A0A707F6
:100B0600A2C028F0A3C029F0A4C02AF0A5C02BF0EB
:100B1600AAC02CF0ABC02DF0ACC02EF0ADC02FF0AB
:100B260049EC16F0D8A0CED770C007F0086AE0EC02
:100B360019F007500001976F97C094F0670E971948
:100B4600D8A419D0ED51EE11D8A404D0000EEE6F42
:100B5600010EED6FEEBF05D0EE5108E1ED05D8B000
:100B660005D0000E936F060E926F08D0EDC092F07E
:100B7600EEC093F003D0EEAFF9D7F3D7670E97190F
:100B8600D8A422D0A7AF06D0FC0EA65DFF0EA759AB
:100B9600D8A018D0FF0E716FFF0E726F92C073F05F
:100BA60093C074F07151732772517423A651735D0B
:100BB6007451800A756FA751800A7559D8A002D062
:100BC600660E01D0650E946F92C08AF093C08BF0CA
:100BD600670E9719D8A405D0660E9419D8B4A7AF96
:100BE60002D08A4B8B2B660E9419D8A416D0A7AFC9
:100BF6000CD0000EAA6F000EAB6F800EAC6F3F0ECE
:100C0600AD6F000EA76F000EA66F670E9719D8B4CA
:100C160004D0A6518A27A7518B23000EA16F000E80
:100C2600A06FA2C098F0A3C099F0A4C09AF0A5C086
:100C36009BF0AAC076F0ABC077F0ACC078F0ADC040
:100C460079F07BD098C034F099C035F09AC036F070
:100C56009BC037F0AAC038F0ABC039F0ACC03AF050
:100C6600ADC03BF0E8EC12F034C04DF035C04EF0AC
:100C760036C04FF037C050F02CEC14F04DC09CF04D
:100C86004EC09DF04FC09EF050C09FF09CC060F0DB
:100C96009DC061F09EC062F09FC063F017EC17F034
:100CA60060C08EF061C08FF098C060F099C061F0AE
:100CB6009AC062F09BC063F0AAC013F0ABC014F0F8
:100CC600ACC015F0ADC016F09CC00FF09DC010F082
:100CD6009EC011F09FC012F0B9EC0FF00FC064F087
:100CE60010C065F011C066F012C067F052EC1AF041
:100CF60060C098F061C099F062C09AF063C09BF042
:100D0600AAC034F0ABC035F0ACC036F0ADC037F099
:100D1600000E386E000E396E200E3A6E410E3B6E96
:100D2600E8EC12F034C0AAF035C0ABF036C0ACF037
:100D360037C0ADF00001A04BA12B8A51A05DA15197
:100D4600800A716F8B51800A7159D8A07BD7AAC0CF
:100D56000FF0ABC010F0ACC011F0ADC012F0000E39
:100D6600136E000E146EA00E156E400E166EB9ECC4
:100D76000FF00FC09CF010C09DF011C09EF012C085
:100D86009FF098C028F099C029F09AC02AF09BC01D
:100D96002BF09CC02CF09DC02DF09EC02EF09FC065
:100DA6002FF049EC16F0D8B003D0000E000118D091
:100DB60098C001F099C002F09AC003F09BC004F0FD
:100DC6009CC005F09DC006F09EC007F09FC008F0CD
:100DD60063EC18F0D8A00BD000018EB108D0000E3D
:100DE6009C6F000E9D6F000E9E6F000E9F6FA2C03F
:100DF6004DF0A3C04EF0A4C04FF0A5C050F09CC06B
:100E060051F09DC052F09EC053F09FC054F062EC6A
:100E160011F04DC098F04EC099F04FC09AF050C0F6
:100E26009BF076C0AAF077C0ABF078C0ACF079C082
:100E3600ADF0650E00019419D8B405D0A6C08CF0AB
:100E4600A7C08DF004D0000E8D6F000E8C6F000EC3
:100E5600896F000E886F000E876F000E866F000E7A
:100E6600A16F000EA06FC6D098C034F099C035F0BF
:100E76009AC036F09BC037F0AAC038F0ABC039F044
:100E8600ACC03AF0ADC03BF0E8EC12F034C04DF027
:100E960035C04EF036C04FF037C050F02CEC14F091
:100EA6004DC09CF04EC09DF04FC09EF050C09FF0CC
:100EB6009CC060F09DC061F09EC062F09FC063F070
:100EC60017EC17F060C08EF061C08FF00001EFB92B
:100ED6000CD08E518F11D8A408D0670E9719D8B4AC
:100EE6008DAF03D0864B872B39D088518911D8B462
:100EF6008DAF22D02D0EA825D96E010EA921DA6E4E
:100F06002E0EDF6EA84BA92B9507D8A09607000ECC
:100F1600896F010E886F10D02D0EA825D96E010E8F
:100F2600A921DA6E300EDF6EA84BA92B9507D8A043
:100F360096078607D8A0870786518711D8A4ECD7CD
:100F46002D0EA825D96E010EA921DA6E8E51300F0D
:100F5600DF6EA84BA92B9507D8A0960798C060F01E
:100F660099C061F09AC062F09BC063F0AAC013F00A
:100F7600ABC014F0ACC015F0ADC016F09CC00FF0BD
:100F86009DC010F09EC011F09FC012F0B9EC0FF09A
:100F96000FC064F010C065F011C066F012C067F0B3
:100FA60052EC1AF060C098F061C099F062C09AF0F5
:100FB60063C09BF0AAC034F0ABC035F0ACC036F0CD
:100FC600ADC037F0000E386E000E396E200E3A6E48
:100FD600410E3B6EE8EC12F034C0AAF035C0ABF01F
:100FE60036C0ACF037C0ADF000018C07D8A08D0735
:100FF600A04BA12B8A51A05DA151800A716F8B5124
:10100600800A7159D8B008D0A9BF2ED7A95104E1DA
:101016004B0EA85DD8A028D788518911D8B4EFA95E
:101026000AD02D0EA825D96E010EA921DA6E2E0E34
:10103600DF6EA84BA92B2D0EA825D96E010EA9216E
:10104600DA6E000EDF6E650E9419D8A47FD4000EFA
:10105600A16F4F0EA06F2D0EA025D96E010EA121F6
:10106600DA6E000EDF6E000E916F000E906FA7AF66
:1010760008D0000E916F010E906FA66DA71FD8B015
:10108600A72B000E936F020E926F2BD0A007D8A04D
:10109600A1072D0EA025D96E010EA121DA6EA6C0DC
:1010A60001F0A7C002F0000E046E0A0E036E27ECD4
:1010B60019F00150300FDF6EA6C001F0A7C002F094
:1010C600000E046E0A0E036EA8EC18F001C0A6F01E
:1010D60002C0A7F000019207D8A093079507D8A0F1
:1010E6009607A651A711D8A4D1D793BF05D093517F
:1010F600CDE19205D8B0CAD7A007D8A0A1079051D4
:101106009111D8A404D0000E816F2B0E03D0000ECF
:10111600816F2D0E806F2D0EA025D96E010EA12197
:10112600DA6E80C0DFFF9507D8A09607A007D8A083
:10113600A107BF0E716FFF0E726F7051736F746BE4
:101146007151732772517423745106E11A0E735D3F
:10115600D8B002D0010E01D0000E846F856B845189
:101166008511D8A404D0000E836F650E03D0000E3F
:10117600836F450E826F2D0EA025D96E010EA1211B
:10118600DA6E82C0DFFF9507D8A096072D0EA82538
:10119600016E010EA921026E2D0EA025036E010E11
:1011A600A121046EB7EC19F0A9EF04F0720ED36E0C
:1011B600000E946E15EC1BF0B4EC1BF0CAEC1BF0A1
:1011C600C0EC1BF0000E026E000E016EEAEC18F089
:1011D60001C0F9F002C0FAF0000E026E010E016EB7
:1011E600EAEC18F001C0F7F002C0F8F00001F9517E
:1011F600F55DF651800AE06FFA51800AE059D8B0E1
:101206000CD0F9C0F5F0FAC0F6F00FC123F110C109
:1012160024F111C125F112C126F1F751F35DF45104
:10122600800AE06FF851800AE059D8B00CD0F7C0B8
:10123600F3F0F8C0F4F00FC11FF110C120F111C195
:1012460021F112C122F1500EF15DC30EF259D8A060
:10125600B9D7000E136E000E146E000E156E3F0EFB
:10126600166EF5C001F0F6C002F0000E02BEFF0ECB
:10127600036E046E010EA9EC15F001C00FF002C05A
:1012860010F003C011F004C012F0B9EC0FF00FC05B
:1012960051F010C052F011C053F012C054F0000EBD
:1012A600136E000E146E000E156E3F0E166EFDC008
:1012B60001F0FEC002F0000E02BEFF0E036E046EC9
:1012C600010EA9EC15F001C00FF002C010F003C02A
:1012D60011F004C012F0B9EC0FF00FC04DF010C0C1
:1012E6004EF011C04FF012C050F062EC11F04DC03C
:1012F60060F04EC061F04FC062F050C063F017EC72
:1013060017F060C0F5F061C0F6F0000E386EC00E42
:10131600396E7F0E3A6E440E3B6E000E136E000E53
:10132600146EA00E156E400E166EF5C001F0F6C0D6
:1013360002F0000E02BEFF0E036E046E010EA9EC53
:1013460015F001C00FF002C010F003C011F004C088
:1013560012F0B9EC0FF00FC034F010C035F011C028
:1013660036F012C037F0E8EC12F034C04DF035C05C
:101376004EF036C04FF037C050F0000E516E000EE2
:10138600526E200E536EC00E546E62EC11F04DC0BC
:10139600E9F04EC0EAF04FC0EBF050C0ECF0000EA2
:1013A6000001606F000E616F000E626F400E636F8A
:1013B600A0EC0DF060C0E1F061C0E2F062C0E3F0C5
:1013C60063C0E4F0E9C034F0EAC035F0EBC036F0B3
:1013D600ECC037F0CD0E136ECC0E146E4C0E156E9F
:1013E6003E0E166EE1C00FF0E2C010F0E3C011F041
:1013F600E4C012F0B9EC0FF00FC038F010C039F0AD
:1014060011C03AF012C03BF0E8EC12F034C0E9F03B
:1014160035C0EAF036C0EBF037C0ECF0000E136EC4
:10142600000E146E000E156E3F0E166EF3C001F020
:10143600F4C002F0000E02BEFF0E036E046E010E33
:10144600A9EC15F001C00FF002C010F003C011F0B6
:1014560004C012F0B9EC0FF00FC051F010C052F0FA
:1014660011C053F012C054F0000E136E000E146E2D
:10147600000E156E3F0E166EFBC001F0FCC002F0AA
:10148600000E02BEFF0E036E046E010EA9EC15F0EF
:1014960001C00FF002C010F003C011F004C012F03A
:1014A600B9EC0FF00FC04DF010C04EF011C04FF068
:1014B60012C050F062EC11F04DC060F04EC061F009
:1014C6004FC062F050C063F017EC17F060C0F3F045
:1014D60061C0F4F0000E386EC00E396E7F0E3A6EA3
:1014E600440E3B6E000E136E000E146EA00E156EAB
:1014F600400E166EF3C001F0F4C002F0000E02BEFC
:10150600FF0E036E046E010EA9EC15F001C00FF07C
:1015160002C010F003C011F004C012F0B9EC0FF0D5
:101526000FC034F010C035F011C036F012C037F0DD
:10153600E8EC12F034C04DF035C04EF036C04FF036
:1015460037C050F0000E516E000E526E200E536ED4
:10155600C00E546E62EC11F04DC0E5F04EC0E6F0E0
:101566004FC0E7F050C0E8F0E5C034F0E6C035F013
:10157600E7C036F0E8C037F05A0E386EF50E396E11
:10158600B90E3A6E3C0E3B6EE8EC12F034C0E5F054
:1015960035C0E6F036C0E7F037C0E8F0000E286E3A
:1015A600000E296E000E2A6E000E2B6EE5C02CF082
:1015B600E6C02DF0E7C02EF0E8C02FF049EC16F09B
:1015C600D8B08ED0000E286E000E296E000E2A6E40
:1015D600000E2B6EE9C02CF0EAC02DF0EBC02EF009
:1015E600ECC02FF049EC16F0D8B07AD0840E00018A
:1015F600CE6F010ECF6F180ED06F080ED16FE5C0FB
:10160600D2F0E6C0D3F0E7C0D4F0E8C0D5F08EEC57
:1016160019F0010E0B6E840E0C6E010E0D6E010E8E
:10162600B1EC1AF0000E026E0A0E016ECBEC1AF047
:101636008B0E0001CE6F010ECF6F0F0ED06F080E0E
:10164600D16FE9C0D2F0EAC0D3F0EBC0D4F0ECC061
:10165600D5F08EEC19F00A0E0B6E8B0E0C6E010E89
:101666000D6E010EB1EC1AF0000E026E0A0E016E3E
:10167600CBEC1AF0E9C00FF0EAC010F0EBC011F0A5
:10168600ECC012F0E5C013F0E6C014F0E7C015F0A8
:10169600E8C016F0B9EC0FF00FC01BF110C01CF13A
:1016A60011C01DF112C01EF17D0E0001CE6F010E9C
:1016B600CF6F050ED06F080ED16F1BC1D2F01CC1C3
:1016C600D3F01DC1D4F01EC1D5F08EEC19F0010E79
:1016D6000B6E7D0E0C6E010E0D6E020EB1EC1AF045
:1016E600F5C0FDF0F6C0FEF0000E0001F66F000E2C
:1016F600F56FF3C0FBF0F4C0FCF0000EF46F000EC3
:10170600F36F60D5B0C0D9FFB1C0DAFFDECFF6FF08
:10171600DDCFF7FF0800F550250AD8A4F4D1B0C0F4
:10172600D9FFB1C0DAFFDE2A000EDD22000E01016C
:101736002C6F000E2B6F2BC1EFF02CC1F0F00001C7
:10174600ED69EE69000EB96F000E14D0EF81B0C0DE
:10175600D9FFB1C0DAFFDE2A000EDD222ED0EF83DC
:10176600F6D7EF85F4D7EF87F2D7EF89F0D7000EDB
:10177600B96F010EB86F21D0B0C0D9FFB1C0DAFF82
:10178600DECFF6FFDDCFF7FF0800F550B46FB56B7F
:10179600B551000AD8A4EBD7B451200AD8B4E3D780
:1017A600030AD8B4E2D7080AD8B4DBD7060AD8B4F5
:1017B600CDD71D0AD8B4D3D7DAD7B851B911D8B412
:1017C600DBD7EFB1EF93B0C0D9FFB1C0DAFFDECF00
:1017D600F6FFDDCFF7FF0800F5502E0AD8A46ED02D
:1017E600000EEE6F000EED6FB0C0D9FFB1C0DAFF8C
:1017F600DE2A000EDD22B0C0D9FFB1C0DAFFDECF8F
:10180600F6FFDDCFF7FF0800F5502A0AD8A41CD052
:10181600B0C0D9FFB1C0DAFFDE2A000EDD22B2C0A9
:10182600D9FFB3C0DAFFDFCFB4F0020EDE26DFCF7A
:10183600B5F0000EDD22B4C0D9FFB5C0DAFFDECFA9
:10184600EDF0DDCFEEF03AD0B0C0D9FFB1C0DAFF8F
:10185600DECF08F0DDCF09F009EC15F008C0EDF099
:1018660009C0EEF007D0B0C0D9FFB1C0DAFFDE2A5A
:10187600000EDD22D00E0001B46FFF0EB56FB0C0B2
:10188600D9FFB1C0DAFFDECFF6FFDDCFF7FF0800E4
:10189600F550B66FB76BB451B627B551B723B751EC
:1018A60006E10A0EB65DD8B002D0010E01D0000ED8
:1018B600BA6FBB6BBA51BB11D8A4D5D7B0C0D9FF8C
:1018C600B1C0DAFFDECFF6FFDDCFF7FF0800F55037
:1018D600076E086AE0EC19F007500001C26FC251AA
:1018E600D8B435D0B0C0D9FFB1C0DAFFDECFB4F07E
:1018F600DDCFB5F0010EB427000EB523B4C0F6FF58
:10190600B5C0F7FF0800F550076E086AE0EC19F05D
:1019160007500001C36FC351D8B419D0B0C0D9FF66
:10192600B1C0DAFFDECFB4F0DDCFB5F0020EB427DA
:10193600000EB523B4C0F6FFB5C0F7FF0800F5509A
:10194600076E086AE0EC19F007500001C46F660ED6
:10195600C219D8A43FD0B0C0D9FFB1C0DAFFDECFDC
:10196600F6FFDDCFF7FF0800F5CFC5F0B0C0D9FF11
:10197600B1C0DAFFDE2A000EDD22B2C0D9FFB3C045
:10198600DAFFDFCFB4F0040EDE26DFCFB5F0000EAF
:10199600DD22B4C0D9FFB5C0DAFFDECFBEF0DECFA0
:1019A600BFF0DECFC0F0DECFC1F0AEC06AF0AFC090
:1019B6006BF0BEC06CF0BFC06DF0C0C06EF0C1C0B1
:1019C6006FF0C5C070F01BEC04F06AC0AEF06BC0DF
:1019D600AFF01200C20E016E000E026E310E036EE3
:1019E600080E046E000E066E020E056E75EC17F0FC
:1019F60001500210D8A456D0B0C0D9FFB1C0DAFF4A
:101A0600DECFB4F0DDCFB5F0010E0001B427000E35
:101A1600B523B4C0F6FFB5C0F7FF0800F5CFC5F093
:101A2600BF0EB46FFF0EB56FB0C0D9FFB1C0DAFFFD
:101A3600DECFF6FFDDCFF7FF0800F550B66FB76BC8
:101A4600B451B627B551B723B75106E11A0EB65DA4
:101A5600D8B002D0010E01D0000EBC6FBD6BBC51D8
:101A6600BD11B2C0D9FFB3C0DAFFDFCFB4F0040EA8
:101A7600DE26DFCFB5F0000EDD22B4C0D9FFB5C03B
:101A8600DAFFDECFBEF0DECFBFF0DECFC0F0DECFB6
:101A9600C1F0020EB0C0D9FFB1C0DAFFDE26000EDB
:101AA600DD2283D7B0C0D9FFB1C0DAFFDECFF6FFA3
:101AB600DDCFF7FF0800F550250AD8A417D0B0C02F
:101AC600D9FFB1C0DAFFDE2A000EDD22000E026E5B
:101AD600250E016EAEC003F0AFC004F0C6EC17F0E1
:101AE600000E0001AF6F010EAE6F1200B0C0D9FF3D
:101AF600B1C0DAFFDE2A000EDD22000E0001AF6F54
:101B0600000EAE6F1200B0C0D9FFB1C0DAFFDECF53
:101B1600F6FFDDCFF7FF0800F550016E026AAEC092
:101B260003F0AFC004F0C6EC17F0B0C0D9FFB1C0E7
:101B3600DAFFDE2A000EDD22D3D760C075F061C061
:101B460076F062C077F063C078F075C08DF076C02D
:101B56008EF077C08FF078C090F0000E00018D15E2
:101B6600646F000E8E15656F800E8F15666F7F0E83
:101B76009015676F800E661933E17F0E6719641141
:101B86006511D8A42DD060C013F061C014F062C0F6
:101B960015F063C016F060C00FF061C010F062C0AF
:101BA60011F063C012F0B9EC0FF00FC04DF010C089
:101BB6004EF011C04FF012C050F060C051F061C03D
:101BC60052F062C053F063C054F062EC11F04DC0A5
:101BD60060F04EC061F04FC062F050C063F012007A
:101BE60090BF07D090518F118E1134E18D05D8B07A
:101BF60031D0FF0E8D15646FFF0E8E15656FFF0ECB
:101C06008F15666F7F0E9015676F645165116611AB
:101C16006711D8A409D060C060F061C061F062C0ED
:101C260062F063C063F0120090AF14D0000E0101A1
:101C3600286F210E276F170E016E080E026EA3EC99
:101C46001BF001C060F002C061F003C062F004C086
:101C560063F01200170E646F8DC065F08EC066F0DB
:101C66008FC067F090C068F0646701D007D0683510
:101C76006833673366336533642FF6D765C085F0FE
:101C860066C086F067C087F068C088F0000185519D
:101C9600861187118811D8A42AD0000E716F000E04
:101CA600726F000E736F000E746F0BD0D8908D3765
:101CB6008E378F379037010E7127000E72237323EC
:101CC60074238FAFF3D7FF0E7125646FFF0E722159
:101CD600656FFF0E7321666FFF0E7421676F645187
:101CE600855F6551865B6651875B6751885B810EB0
:101CF6008527FF0E8623FF0E8723FF0E8823FF0E00
:101D06008D15646FFF0E8E15656F7F0E8F15666FCE
:101D1600000E9015676F000E64118D6F000E651131
:101D26008E6F800E66118F6F000E6711906F85A102
:101D360008D08D518D278E518E238F518F23905130
:101D46009023883588338733863385338D518D27A5
:101D56008E518E238F518F2390519023000E6D6FDD
:101D6600000E6E6F000E6F6F000E706F6DC079F013
:101D76006EC07AF06FC07BF070C07CF0000E896F89
:101D8600000E8A6F000E8B6F010E8C6F43D0895147
:101D96006D257D6F8A516E217E6F8B516F217F6F0E
:101DA6008C517021806F7D518D5D7E518E597F5192
:101DB6008F599051800A646F8051800A6459D8A067
:101DC6001CD089517D256D6F8A517E216E6F8B5196
:101DD6007F216F6F8C518021706F7D518D5F7E5199
:101DE6008E5B7F518F5B8051905B895179278A5139
:101DF6007A238B517B238C517C238D518D278E51D9
:101E06008E238F518F2390519023D8908C338B3310
:101E16008A33893389518A118B118C11D8A4B7D78B
:101E26008D518E118F119011D8B455D0000E816F3F
:101E3600000E826F800E836F3F0E846F81C028F084
:101E460082C029F083C02AF084C02BF0000E2C6ECD
:101E5600000E2D6E800E2E6E3F0E2F6E49EC16F084
:101E6600D8A039D0000E0001816F000E826F800E5F
:101E7600836F3F0E846F000E286E000E296E800E53
:101E86002A6E3F0E2B6E81C02CF082C02DF083C0CF
:101E96002EF084C02FF049EC16F0D8B007D0020E11
:101EA60000017927000E7A237B2314D0010E00014E
:101EB6007915646F000E7A15656F000E7B15666FD7
:101EC600000E7C15676F6451792765517A23665138
:101ED6007B2367517C2379C064F07AC065F07BC0B0
:101EE60066F07CC067F0000167356733663365339B
:101EF6006433000E64258D6F000E65218E6F000E13
:101F060066218F6F3F0E6721906F85C064F086C093
:101F160065F087C066F088C067F0170ED890643702
:101F2600653766376737E82EF9D764518D276551CF
:101F36008E2366518F23675190238DC075F08EC016
:101F460076F08FC077F090C078F075C081F076C0DB
:101F560082F077C083F078C084F081C060F082C0E0
:101F660061F083C062F084C063F012001250800BEF
:101F76001B6E12501224216E11BE21802150D8B43E
:101F86000DD02128D8A408D0000E0F6E000E106EBA
:101F9600000E116E000E126E118E08D0000E0F6E1E
:101FA600000E106E000E116E000E126E1650800B93
:101FB6001B1A16501624206E15BE20802050D8B449
:101FC6000DD02028D8A408D0000E136E000E146E73
:101FD600000E156E000E166E158E08D0000E136ECE
:101FE600000E146E000E156E000E166E2050D8B43C
:101FF60003D02150D8A409D0000E0F6E000E106E2B
:10200600000E116E000E126E120015500F02F3CF65
:1020160026F0F4CF27F026501C6E1D6A1E6A1F6A32
:102026002750226E236A246A256A14501002F3CFC1
:1020360026F0F4CF27F026501C26000E1D221E2265
:102046001F2227502226000E232224222522135047
:102056001102F3CF26F0F4CF27F026501C26000EEF
:102066001D221E221F2227502226000E2322242252
:1020760025221EC01FF01DC01EF01CC01DF01C6ACC
:1020860013501002F3CF26F0F4CF27F026501C266B
:1020960027501D22000E1E22000E1F2214500F0272
:1020A600F3CF26F0F4CF27F026501C2627501D220A
:1020B600000E1E22000E1F221EC01FF01DC01EF0A5
:1020C6001CC01DF01C6A13500F02F3CF26F0F4CF8C
:1020D60027F026501C2627501D22000E1E22000E19
:1020E6001F2215501002F3CF26F0F4CF27F026500A
:1020F600222627502322000E2422000E25221450C9
:102106001102F3CF26F0F4CF27F0265022262750CF
:102116002322000E2422000E252215501102F3CF91
:1021260026F0F4CF27F02650176E2750186E196A3E
:102136001A6A19C01AF018C019F017C018F0176AF1
:102146001750222618502322195024221A502522CD
:102156001CC017F01DC018F01EC019F01FC01AF0E1
:10216600190E05D0D8901A32193218321732E82EC5
:10217600F9D71750222618502322195024221A5014
:1021860025221EC01FF01DC01EF01CC01DF01C6ABB
:10219600205021C017F0186A1726000E1822820E4A
:1021A6001724266EFF0E1820276E0FD0D8902236E1
:1021B6002336243625361FBE2280D8901C361D367F
:1021C6001E361F362606D8A0270624AEEFD7000EE9
:1021D600206E1FAE17D0FF0E1C14176EFF0E1D14B7
:1021E600186EFF0E1E14196E7F0E1F141A6E1750EE
:1021F600181019101A10D8B403D0010E206E02D090
:1022060022B0FBD72050D8B41FD0010E2226000ED4
:1022160023222422252225A017D022C017F023C06E
:1022260018F024C019F025C01AF01A341A321932DF
:102236001832173217C022F018C023F019C024F044
:102246001AC025F0264A272A27BE0DD0275003E1BB
:102256002628D8A008D0000E226E000E236E800E0F
:10226600246E7F0E20D027BE05D027500EE126040F
:10227600D8B00BD0000E226E000E236E000E246E18
:10228600000E256E000E1B6E0FD026C021F0FF0E2D
:102296002216FF0E23167F0E2416000E251621B0D9
:1022A600248ED8902130256E1B50251222C00FF0A7
:1022B60023C010F024C011F025C012F012005050B7
:1022C600800B596E505050245B6E4FBE5B805B5046
:1022D600D8B40DD05B28D8A408D0000E4D6E000EE1
:1022E6004E6E000E4F6E000E506E4F8E06D0000ED4
:1022F6004D6E000E4E6E000E4F6E000E506E545018
:10230600800B5A6E59505A18D8A4598C54505424DC
:102316005A6E53BE5A805A50D8B40DD05A28D8A4F3
:1023260008D0000E516E000E526E000E536E000E57
:10233600546E538E06D0000E516E000E526E000E75
:10234600536E000E546E5B505A5CD8B022D059AC16
:1023560002D0800E591A5BC05CF05AC05BF05CC0BC
:102366005AF04DC05CF051C04DF05CC051F04EC00B
:102376005CF052C04EF05CC052F04FC05CF053C0EF
:102386004FF05CC053F050C05CF054C050F05CC0DD
:1023960054F0000E5C6E5B505AC055F0566A555E9E
:1023A600000E565A56BE2CD0565004E11A0E555CF5
:1023B600D8A026D04D504E104F105010D8B402D091
:1023C600010E01D0000E5C6E000E4D6E000E4E6EBC
:1023D600000E4F6E000E506E5AC05BF015D05CA01A
:1023E60005D0D8905C3001095C6E02D0D8905C3282
:1023F6004DB05C8E503450324F324E324D325B2AE5
:102406005A505B5CD8A0EBD759BC28D05B50D8A4F7
:1024160009D0000E4D6E000E4E6E000E4F6E000E71
:10242600506E120051504D2652504E2253504F229C
:102436005450502250A071D05CA005D0D8905C308A
:1024460001095C6E02D0D8905C324DB05C8E50347F
:1024560050324F324E324D325B2A5FD051504D5C76
:1024660052504E5853504F585050800A556E545043
:10247600800A5558D8B025D04D50515C556E4E50F7
:102486005258566E4F505358576E50505458586EB7
:10249600FF0E55244D6EFF0E56204E6EFF0E572032
:1024A6004F6EFF0E5820506E800E591A5C6C5C50B1
:1024B600D8A40FD0010E4D26000E4E224F225022D8
:1024C60008D051504D5E52504E5A53504F5A5450A8
:1024D600505A4D504E104F105010D8A41CD05C507E
:1024E600D8A419D0000E4D6E000E4E6E000E4F6E23
:1024F600000E506E1200D8904D364E364F3650367E
:102506005CBE4D805CA002D0D88001D0D8905C36ED
:102516005B50D8A45B064FAEEED7000E5A6E5CAE8B
:102526000BD05CC055F07F0E5516D8B403D0010E03
:102536005A6E02D04DB0FBD75A50D8B420D0010EF7
:102546004D26000E4E224F22502250A018D04DC0CC
:1025560055F04EC056F04FC057F050C058F05834A2
:10256600583257325632553255C04DF056C04EF09D
:1025760057C04FF058C050F05B28D8A45B2A5B28A0
:10258600D8B403D05B50D8A40DD0000E4D6E000E0B
:102596004E6E000E4F6E000E506E5B50D8A402D0E9
:1025A600000E596E5BA002D04F8E01D04F9ED89080
:1025B6005B30506E59BE508E4DC04DF04EC04EF041
:1025C6004FC04FF050C050F012003750800B446E91
:1025D600375037244B6E36BE4B804B50D8B40DD097
:1025E6004B28D8A408D0000E346E000E356E000EAF
:1025F600366E000E376E368E06D0000E346E000E26
:10260600356E000E366E000E376E3B50800B441A48
:102616003B503B244C6E3ABE4C804C50D8B40DD047
:102626004C28D8A408D0000E386E000E396E000E65
:102636003A6E000E3B6E3A8E06D0000E386E000ED5
:10264600396E000E3A6E000E3B6E385039103A1055
:102656003B10D8A417D0000E346E000E356E000E57
:10266600366E000E376E800E36127F0E37124450CD
:10267600371234C034F035C035F036C036F037C0C6
:1026860037F012004B50D8A409D0000E346E000E5D
:10269600356E000E366E000E376E12004C504BC073
:1026A6003CF03D6A3C5E000E3D5A7F0E3C24456E72
:1026B600000E3D20466E34C040F035C041F036C0B5
:1026C60042F037C043F0000E346E000E356E000E39
:1026D600366E000E376E000E476E000E486E000E08
:1026E600496E000E4A6E000E4C6E28D04C50D8B47F
:1026F60011D0D8904036413642364336D8903436DB
:102706003536363637364ABE3480D8904736483660
:1027160049364A363850405C395041583A5042584A
:102726003B504358D8A009D04A8C3850405E3950A7
:10273600415A3A50425A3B50435A4C2A190E4C645D
:10274600D5D74050411042104310D8B411D047801D
:102756000FD0D89034363536363637364ABE3480C2
:10276600D8904736483649364A364506D8A04606F2
:1027760036AEEFD7000E4C6E4AAE17D0FF0E47149A
:102786003C6EFF0E48143D6EFF0E49143E6E7F0EE2
:102796004A143F6E3C503D103E103F10D8B403D053
:1027A600010E4C6E02D034B0FBD74C50D8B41FD0BB
:1027B600010E3426000E35223622372237A017D0D6
:1027C60034C03CF035C03DF036C03EF037C03FF077
:1027D6003F343F323E323D323C323CC034F03DC0A5
:1027E60035F03EC036F03FC037F0454A462A46BE71
:1027F60010D0465003E14528D8A00BD0000E466EF7
:102806004568000E346E000E356E000E366E000EF4
:10281600376E46BE05D0465011E14504D8B00ED0FD
:10282600000E466E000E456E000E346E000E356EBE
:10283600000E366E000E376E000E446E45C04BF02D
:102846004BA002D0368E01D0369ED8904B30376ED4
:102856000ED707C166F008C167F009C168F00AC162
:1028660069F04DC066F04EC067F04FC068F050C0CA
:1028760069F0810E516EFF0E526E66C053F067C04E
:1028860054F068C055F069C056F0180E05D0D890BF
:102896005632553254325332E82EF9D7535051241A
:1028A6000001646F000E5220656F65BF0FD0655141
:1028B60004E1170E645DD8A009D04DC04DF04EC09E
:1028C6004EF04FC04FF050C050F0120065BF5FD0C1
:1028D60064C051F0FF0E526EFF0E536E7F0E546EA3
:1028E600000E556E516601D007D05534553254321C
:1028F60053325232512EF6D752C060F053C061F0B7
:1029060054C062F055C063F0000160516615516E07
:1029160061516715526E62516815536E63516915A0
:10292600546E5150521053105410D8B4C6D766C0C6
:1029360051F067C052F068C053F069C054F0200EE1
:1029460005D0D8905432533252325132E82EF9D74C
:102956005150521053105410D8B408D06051662705
:10296600615167236251682363516923601D516E6B
:10297600611D526E621D536E631D546E5150661773
:1029860052506717535068175450691736D066C0AF
:1029960051F067C052F068C053F069C054F0200E81
:1029A60005D0D8905432533252325132E82EF9D7EC
:1029B6005150521053105410D8A408D0000E666F10
:1029C600000E676F000E686F000E16D0D890663541
:1029D600516E6735526E6835536E6935546E515077
:1029E600521053105410D8B408D0000E666F000E63
:1029F600676F800E686FBF0E696F66C04DF067C067
:102A06004EF068C04FF069C050F01200000E166E0E
:102A1600000E156E000E0F6E000E0E6E02D0084AE6
:102A2600092A010E146E08C0F6FF09C0F7FF080058
:102A3600F550200AD8B418D0F70E0A6EFF0E0B6EAA
:102A460008C0F6FF09C0F7FF0800F5500C6E0D6AC6
:102A56000A500C260B500D220D5004E1050E0C5C9D
:102A6600D8A002D0000E146E14C010F0116A1050D7
:102A76001110D8B408D0D3D7000E0F6E010E0E6E0B
:102A8600084A092A2ED008C0F6FF09C0F7FF080039
:102A9600F5500A6E0B6A0B50000AD8A422D00A50D1
:102AA6002B0AD8B4EDD7060AD8B4E6D71AD015C083
:102AB60001F016C002F0000E046E0A0E036E6CECF6
:102AC6001BF008C0F6FF09C0F7FF0800F550015ECD
:102AD600000E025A300E0124156E000E0220166EEC
:102AE600CFD7D00E0A6EFF0E0B6E08C0F6FF09C0D8
:102AF600F7FF0800F5500C6E0D6A0A500C260B50B5
:102B06000D220D5006E10A0E0C5CD8B002D0010E63
:102B160001D0000E126E136A12501310D8A4C7D734
:102B26000E500F10D8A40DD015C00AF016C00BF029
:102B36000A1E0B1E0A4A0B2A0AC008F00BC009F02F
:102B4600120015C008F016C009F01200096E0950EF
:102B5600D8A404AE1AD001C005F002C006F003C026
:102B660007F004C008F0051E061E071E081E052AEB
:102B7600000E06220722082205C00BF006C00CF044
:102B860007C00DF008C00EF008D001C00BF002C05F
:102B96000CF003C00DF004C00EF00150021003103B
:102BA6000410D8A409D0000E016E000E026E000EAD
:102BB600036E000E046E1200960E0A6E06D00A2AE6
:102BC600D8900E320D320C320B32000E0B14056EFD
:102BD600000E0C14066E000E0D14076EFE0E0E147B
:102BE600086E0550061007100810D8B40DD0E7D7A8
:102BF6000A2A010E0B26000E0C220D220E22D89058
:102C06000E320D320C320B32000E0B14056E000E16
:102C16000C14066E000E0D14076EFF0E0E14086ED1
:102C26000550061007100810D8B407D0E1D70A06D9
:102C3600D8900B360C360D360E360DBE03D0020E6E
:102C46000A60F5D70AA00D9ED8900A320AC005F090
:102C5600066A076A086A05C008F0076A066A056A0E
:102C660005500B1206500C1207500D1208500E128A
:102C76000950D8A404AE01D00E8E0BC001F00CC0D2
:102C860002F00DC003F00EC004F01200000E28146E
:102C9600306E000E2914316E800E2A14326E7F0EAD
:102CA6002B14336E3050311032103310D8A408D0A4
:102CB600000E286E000E296E000E2A6E000E2B6E78
:102CC600000E2C14306E000E2D14316E800E2E1454
:102CD600326E7F0E2F14336E305031103210331097
:102CE600D8A408D0000E2C6E000E2D6E000E2E6E8F
:102CF600000E2F6E2BAE09D0286C291ED8B0292ABB
:102D06002A1ED8B02A2A800E2B562FAE09D02C6C3C
:102D16002D1ED8B02D2A2E1ED8B02E2A800E2F5644
:102D2600000E281A000E291A000E2A1A800E2B1AD7
:102D3600000E2C1A000E2D1A000E2E1A800E2F1AB7
:102D46002C50285C2D5029582E502A582F502B587D
:102D5600D8B002D0D8901200D88012000BC10BF068
:102D66000CC10CF00DC10DF00EC10EF001C00BF040
:102D760002C00CF003C00DF004C00EF00BC005F04D
:102D86000CC006F00DC007F00EC008F0180E05D0F6
:102D9600D8900832073206320532E82EF9D70550A8
:102DA600096E0A6A09500A10D8A419D0D8900B34B3
:102DB600056E0C34066E0D34076E0E34086E055023
:102DC600061007100810D8A405D0000E026E020ED9
:102DD600016E1200000E026E030E016E120009282B
:102DE6000A10D8A41CD00BC005F00CC006F00DC00C
:102DF60007F00EC008F0090ED890053606360736DD
:102E06000836E82EF9D70550061007100810D8A482
:102E160002D0010E01D0000E016E026A1200000EF1
:102E2600026E040E016E12000001623563355E6E9D
:102E36005E50D8A409D0000E606F000E616F000EC0
:102E4600626F000E636F120060C064F061C065F0CF
:102E560062C066F063C067F0200E05D0D890673375
:102E6600663365336433E82EF9D764515D6E628F3D
:102E7600FF0E6017FF0E6117FF0E6217000E631735
:102E8600960E5E5E5EAE0DD05E50800A970FD8A09D
:102E9600D2D7D89063336233613360335E3EF9D75D
:102EA6000DD01F0E5E6407D0C6D7D8906037613745
:102EB600623763375E065E50D8A4F7D75D50D8B444
:102EC60008D0631F621F611F606D000E61236223BD
:102ED600632360C060F061C061F062C062F063C0ED
:102EE60063F0120001C008F002C009F003C00AF046
:102EF60004C00BF00506D8A0060605280FE1062833
:102F0600D8A40CD0000E026E000E016E1200084A04
:102F1600092A0A4A0B2A0506D8A0060608C0D9FFC0
:102F260009C0DAFFDF50D8B41CD00AC0F6FF0BC0C8
:102F3600F7FF0800F5500009D8B413D00550061065
:102F4600D8B40FD008C0D9FF09C0DAFFDF50076E2A
:102F56000AC0F6FF0BC0F7FF0800F5500718D8B4F3
:102F6600D6D708C0D9FF09C0DAFFDF50076E0AC0FE
:102F7600F6FF0BC0F7FF0800F550075C016E026A0A
:102F8600D8A00206120003500410D8B404D003508F
:102F96000410D8A404D00150D4EC1BF0120020EE8B
:102FA60004F00350D9260450DA22DE50DE10D8B4DD
:102FB60016D020EE04F00350D9260450DA2210EE83
:102FC60002F00350E1260450E222DE50E65CE650B1
:102FD600800A096EDE50800A0958D8B0120020EE29
:102FE60002F00350D9260450DA22DECF05F0DDCFF9
:102FF60006F003C0D9FF04C0DAFFDECF07F0DDCF4D
:1030060008F005500724D96E06500820DA6E01C074
:10301600DFFF20EE02F00350D9260450DA22DE2A22
:10302600000EDD2212000001EFA10AD013C00AF043
:1030360014C00BF011C00CF012C00DF095EC1AF094
:1030460016BE05D015C01AF016C01BF004D0000E2F
:103056001B6E000E1A6E000E196E000E186E0CD046
:10306600000E026E200E016E11C003F012C004F0B5
:10307600C6EC17F0184A192A1A50185C1950800A1B
:10308600176E1B50800A1758D8A0EAD70001EFB177
:103096000AD013C00AF014C00BF011C00CF012C015
:1030A6000DF095EC1AF013C001F014C002F044ECD8
:1030B6001BF01A500124116E1B500220126E1200D2
:1030C600000E0114096E000E02140A6E800E03141F
:1030D6000B6E7F0E04140C6E09500A100B100C10A8
:1030E600D8A408D0000E016E000E026E000E036E0C
:1030F600000E046E000E0514096E000E06140A6E0C
:10310600800E07140B6E7F0E08140C6E09500A1001
:103116000B100C10D8A408D0000E056E000E066E1B
:10312600000E076E000E086E055001180AE10650E3
:10313600021807E10750031804E108500418D8B430
:1031460002D0D8901200D8801200000E066E04AE8F
:1031560006D0036C041ED8B0042A010E066E02AE19
:1031660006D0016C021ED8B0022A010E061A000E05
:10317600086E000E076E03500410D8B41CD0010E62
:10318600056E04D0D89003360436052A04AEFAD765
:10319600D890073608360350015C04500258D8A070
:1031A60005D00350015E0450025A0780D8900432BD
:1031B6000332052EEDD70650D8B404D0076C081E8E
:1031C600D8B0082A07C001F008C002F0120001C0FA
:1031D60003F0D8900336D89003363C0E0316C2503F
:1031E600C30B0310C26EC2A203D0036A032A01D026
:1031F600036A010E046E032A02D0D8900436032E09
:10320600FCD7C2A003D0056A052A01D0056A010EC3
:10321600066E052A02D0D8900636052EFCD7065033
:103226000410C212C2B2FED7C350C4CF03F0046A60
:1032360003C004F0036A0310076E0450086E07C04B
:1032460001F008C002F01200000E066E02AE06D0B3
:10325600016C021ED8B0022A010E066E04AE04D01E
:10326600036C041ED8B0042A03500410D8B418D036
:10327600010E056E04D0D89003360436052A04AE36
:10328600FAD70350015C04500258D8A004D003506A
:10329600015E0450025AD89004320332052EF1D74B
:1032A6000650D8B404D0016C021ED8B0022A01C060
:1032B60001F002C002F01200C8C0CCF0C9C0CDF0C7
:1032C600000E01012A6F000E296F17D0C6C0AEF09E
:1032D600C7C0AFF0CC0E0001B06F000EB16FCAC010
:1032E600B2F0CBC0B3F085EC0BF00001AE5101019A
:1032F60029270001AF5101012A23CCC0F6FFCDC01A
:10330600F7FF0800F5500009D8A4E0D729C1C6F098
:103316002AC1C7F01200D20E0001D86F000ED96F75
:10332600CEC0DAF0CFC0DBF0000EDD6F000EDC6F32
:10333600000EDF6F000EDE6FDA0EC66F000EC76F6F
:10334600D0C0C8F0D1C0C9F0D80ECA6F000ECB6F7E
:103356005FEC19F00001DC51CE25D96EDD51CF218D
:10336600DA6E000EDF6E120003C007F004C008F02C
:1033760001C009F002C00AF00750056E0850066E3B
:10338600074A082A05C0F6FF06C0F7FFF86A09C013
:10339600D9FF0AC0DAFF094A0A2A070EF76403D0E2
:1033A6000800F55005D0F6CFE1FFF7CFE2FFE75072
:1033B600DF6EDF50D8B41200DFD7BF0E096EFF0EE6
:1033C6000A6E07C00BF008C00CF009500B260A5015
:1033D6000C220C5006E11A0E0B5CD8B002D0010E7E
:1033E60001D0000E0D6E0E6A0D500E10D8B406D028
:1033F600200E0710076E0850086E120007C007F06F
:1034060008C008F01200086E08C007F0F00E071694
:103416008A500F0B07108A6E8A808A8200F08A9281
:10342600000E026E010E016ECBEC1AF008C007F01A
:10343600073AF00E07168A500F0B07108A6E8A821B
:1034460000F08A92000E026E030E016ECBEC1AF0AB
:103456001200086E08C007F0F00E07168A500F0B10
:1034660007108A6E8A908A8200F08A92000E026E97
:10347600010E016ECBEC1AF008C007F0073AF00E09
:1034860007168A500F0B07108A6E8A8200F08A92FE
:10349600000E026E030E016ECBEC1AF01200000E47
:1034A6000001641B000E651B000E661B800E671B69
:1034B60060C04DF061C04EF062C04FF063C050F086
:1034C60064C051F065C052F066C053F067C054F056
:1034D60062EC11F04DC060F04EC061F04FC062F07A
:1034E60050C063F01200010E076E200E0118021084
:1034F600D8B414D0F70E036EFF0E046E01C005F0AB
:1035060002C006F00350052604500622065004E1C8
:10351600050E055CD8A002D0000E076E07C001F0AC
:10352600026A1200000E106E000E0F6E0BD00EC057
:1035360001F0026A0CC003F00DC004F0C6EC17F0EF
:103546000F4A102A0F500A24D96E10500B20DA6E3B
:10355600DF500E6E0E50D8B41200E9D70E6E020E72
:103566000E6008D00B500F0B80090F6E0F502CEC1D
:103576001AF007D00B500F0BC0090F6E0F502CEC32
:103586001AF00CC009F00DC00AF07FEC1BF0120017
:10359600000E046E000E036E0ED0000E066E000EB8
:1035A600056E054A062A065004E1A50E055CD8A05C
:1035B600F8D7034A042A0150035C02500458D8B0D5
:1035C6001200EBD7BF0E036EFF0E046E01C005F0AE
:1035D60002C006F00350052604500622065006E1F6
:1035E6001A0E055CD8B002D0010E01D0000E016E95
:1035F600026A1200D00E036EFF0E046E01C005F0C3
:1036060002C006F00350052604500622065006E1C5
:103616000A0E055CD8B002D0010E01D0000E016E74
:10362600026A1200000E936E000E026E0F0E016EFD
:10363600CBEC1AF0020E2CEC1AF0280E2CEC1AF039
:10364600010E2CEC1AF00C0E2CEC1AF0060E2CECDB
:103656001AF012000150021003100410D8B408D05A
:10366600000E011A000E021A000E031A800E041A2A
:1036760001C001F002C002F003C003F004C004F070
:10368600120001C003F002C004F002D0014A022A6F
:1036960001C0D9FF02C0DAFFDF50D8A4F7D7035024
:1036A600015C016E04500258026E120001EE00F039
:1036B600920EEE6AE806FDE100EEE5F01A0EEE6AFD
:1036C600E806FDE15F905F92000EF86E0001D9EF0B
:1036D60008F001500302F3CF05F0F4CF06F00150D5
:1036E6000402F350062602500302F350062605C0D4
:1036F60001F006C002F0120009D009C0D9FF0AC0C5
:10370600DAFFDF5006EC1AF0094A0A2A09C0D9FF87
:103716000AC0DAFFDF50D8B41200EFD70600010E58
:1037260001010F27000E1023112312230001F14B74
:10373600F22BFF0ECF6EF60ECE6E9E905F921100AC
:10374600FF0E056EFF0E066EFF0E076E7F0E086EED
:1037560005C001F006C002F007C003F008C004F07F
:103766001200F28EF28C9D809E90800ECD6EFF0E22
:10377600CF6EF60ECE6ECD801200010E2CEC1AF036
:10378600000E026E030E016ECBEC1AF01200926868
:103796000D0EC16E920EC06E000EC46E000EC36E8C
:0437A60012001200FB
:020000040020DA
:08000000FFFFFFFFFFFFFFFF00
:020000040030CA
:0E00000000091F1EFF0381FF0FC00FE00F401D
:00000001FF
